:1003A2000A083F065B4F666D7D077F6F01130001F0
:0203B200120037
:10038D00438E805389F0E4F58A758C28C28DD28C0A
:05039D00D2A9D2AF223D
:10011900759230759130E4F5B1F5B212038DE5129F
:10012900D3941440F9E4F512E512643C703AF512DF
:100139007F061202888F22007F051202888F27000E
:100149007F041202888F24007F021202888F250003
:100159007F011202888F2600E4FF1202888F230094
:100169007F031202888F2100E52375F0021202AD88
:0F017900AFF0EF600575138080AEE4F51380A939
:03000B0002009A56
:10009A00C0E0C0F0C083C082C0D075D000C000C02C
:1000AA0001C002C003C004C005C006C0070512E5AE
:1000BA002575F00A1202AD2408F8E6FFE52575F069
:1000CA000A1202ADAEF074082EF8E64513FDE526D5
:1000DA0075F00A1202AD2408F8E64513FBE5267509
:1000EA00F00A1202ADAEF074082EF8E6F51775188C
:1000FA00051201D1D007D006D005D004D003D00212
:0F010A00D001D000D0D0D082D083D0F0D0E0325E
:0A040400D290D291C29100C2902262
:07000300D290C291D29122BC
:0F03E700EFC4540F75F00AA4FEEF540F2EFF223F
:10034600EF75F06484E5F075F00A84C454F0FEEFAE
:0903560075F00A84E5F04EFF2267
:050188001204047FD009
:02018D008F1EC3
:10018F00C290E4F51FAF1FE51EA807088002C33316
:10019F00D8FC30E704D2918002C29100D2901204B1
:1001AF0024C290051FE51FC3940840D9D29100D2F5
:1001BF0090120424309104C2008002D200C2900237
:0201CF00042406
:10023100E4F51ED291F51FC290120424D29012044B
:1002410024E51E25E0F51E309102051E1204240549
:0C0251001FE51FC3940840DFC290AF1EE1
:01025D00227E
:0E03F600A2019291D290120424C2900204241B
:100202008F2B8D2C1201882000037F0022AF2B122E
:10021200018D2000037F0022AF2C12018D200003EC
:0F0222007F00221200031204241204247F012201
:1002F0001204047FD112018D2000037F002212021C
:0D030000318F1DD2011203F6120003AF1D54
:01030D0022CD
:020288008F1CC9
:10028A001201882000037F0022AF1C12018D20007A
:10029A00037F00221202F0E51CB4020353073F1247
:0202AA0003E768
:0102AC00222F
:0202CF008F2D71
:1002D1007D207F0E1202021201882000037F00227E
:0E02E100AF2D12018D2000037F00221202F0CB
:0102EF0022EC
:04030E00AC07AF0584
:10031200E4FDECD394064005EC9400400A12034637
:07032200AD07AF0412020257
:0103290022B1
:0A040E00D295D29412041EC294226B
:1003C700C2951204242094FDD29512041EC29522D0
:1003B500C29512041EC29412041ED29512041ED2B6
:0203C500942280
:02025E008F1AF5
:10026000E4F51BC295E51A30E004D2948002C294F2
:1002700012042AE51AC313F51AD29512042A051B93
:07028000E51BC3940840DCFC
:010287002254
:10035F008F1912040EE51960047F4080027F44124A
:08036F00025E1203C70203B590
:1003D7008F1912040EE51924C0FF12025E0203C72B
:0604180012025E0203C7A0
:100377008F191203B512040EE5192488FF12025EC5
:060387001203C70203B5DA
:1001D1008F148D158B167F0112035FE4FF1203D775
:1001E100AF147E00120418AF157E00120418AF166A
:1001F1007E00120418AF177E00120418AF18020314
:010201007785
:10032A008F288D298B2AE4FF12035FAF291203D786
:0C033A00AF287E00120418AF2A020377DF
:05041E00007F05DFFE78
:0104230022B6
:04042A007F09DFFE69
:01042E0022AB
:05042400007F10DFFE67
:0104290022B0
:0300000002000EED
:0C000E00787FE4F6D8FD75812D020055C6
:1002AD00C2D530F707B2D563F0FF05F030E70CB2D9
:1002BD00D5F4048463F0FF05F080018430D502F499
:0202CD00042209
:10001A00020119E493A3F8E493A34003F68001F2E2
:10002A0008DFF48029E493A3F85407240CC8C333E7
:10003A00C4540F4420C8834004F456800146F6DFB6
:10004A00E4800B01020408102040809003A2E47EA1
:10005A00019360BCA3FF543F30E509541FFEE493AB
:10006A00A360010ECF54C025E060A840B8E493A372
:10007A00FAE493A3F8E493A3C8C582C8CAC583CA9D
:10008A00F0A3C8C582C8CAC583CADFE9DEE780BE55
:0103B4000048
:00000001FF
