:0300000002000EED
:0C000E00787FE4F6D8FD758119020055DA
:100198000A0A3F065B4F666D7D077F6F01081E01E7
:0201A8000962EA
:10016E00438E805389F0758ACD758CD4D2A9D2AFC7
:05017E00C28DD28C22AD
:10009A007592FF7591FF12016EE50975F00A8424C5
:1000AA000AF8E6FFE50975F00A84740A25F0F8E60D
:1000BA004480FDE50875F00A84240AF8E6FBE508A1
:1000CA0075F00A84740A25F0F8E6F51912010E8013
:0100DA00C85D
:03000B000200DB15
:1000DB00C0E0C0D00515E51570020514B4E81FE5A6
:1000EB0014B4031A7514007515000508E508B43C23
:1000FB000D7508000509E509B46403750900D0D036
:03010B00D0E0320F
:05000300007F05DFFE97
:0100080022D5
:04020C007F09DFFE89
:0102100022CB
:05020600007F10DFFE87
:01020B0022D0
:0A01FC00D294D295120003C295229E
:1001D000C2941202062095FDD294120003C294220A
:1001BE00C294120003C295120003D294120003D20D
:0201CE00952278
:02013600AE0712
:10013800E4FDC294EE30E004D2958002C29512022A
:0E0148000CEEC313FED29412020C0DBD08E49F
:010156002286
:10015700AE071201FCEE60047F4080027F4412016B
:07016700361201D00201BEB7
:0F01E000AE071201FCEE24C0FF1201360201D05F
:0701EF001201E0AF047E00E5
:0601F6001201360201D0E7
:10018300AE071201BE1201FCEE2488FF12013612E3
:0501930001D00201BED5
:10010E00AC07AA057F01120157E4FF1201EFAF02FF
:10011E007E001201F6AF037E001201F6AF197E00CB
:08012E001201F67F06020183B5
:1001AB00AC07AA05E4FF120157AF021201EFAF0330
:0301BB00020183BB
:10001A0002009AE493A3F8E493A34003F68001F262
:10002A0008DFF48029E493A3F85407240CC8C333E7
:10003A00C4540F4420C8834004F456800146F6DFB6
:10004A00E4800B0102040810204080900198E47EAD
:10005A00019360BCA3FF543F30E509541FFEE493AB
:10006A00A360010ECF54C025E060A840B8E493A372
:10007A00FAE493A3F8E493A3C8C582C8CAC583CA9D
:10008A00F0A3C8C582C8CAC583CADFE9DEE780BE55
:0101AA000054
:00000001FF
