:0300000002000EED
:0C000E00787FE4F6D8FD758120020055D3
:1001CE000A093F065B4F666D7D077F6F01081EC1F2
:0101DE000020
:10019100438E805389F0758ACD758CD4D2A9D2AFA4
:0501A100C28DD28C228A
:10009A007592FF7591FF12019130002CE50875F0F9
:1000AA000A842409F8E64480FF7B027D011201BB21
:1000BA00E50875F00A84740925F0F8E64480FF7BA8
:1000CA00027D021201BB80D1E50875F00A84240979
:1000DA00F8E6FF7B027D011201BBE50875F00A8490
:1000EA00740925F0F8E6FF7B027D021201BB80A9A4
:03000B000200FAF6
:1000FA00C0E0C0D00514E51470020513B4F407E596
:10010A0013B40102B200E514B4E817E513B40312FC
:10011A00B2007513007514000508E508B43C0375B0
:07012A000800D0D0D0E03244
:05000300007F05DFFE97
:0100080022D5
:04022E007F09DFFE67
:0102320022A9
:05022800007F10DFFE65
:01022D0022AE
:0A021E00D295D294120003C294227C
:1001F200C2951202282094FDD295120003C29522C4
:1001E000C295120003C294120003D295120003D2EA
:0201F000942257
:02015900AE07EF
:10015B00E4FDC295EE30E004D2948002C294120208
:0E016B002EEEC313FED29512022E0DBD08E437
:010179002263
:10017A00AE0712021EEE60047F4080027F44120125
:07018A00591201F20201E02D
:0F020200AE0712021EEE24C0FF1201590201F2D4
:07021100120202AF047E009F
:060218001201590201F27F
:1001A600AE071201E012021EEE2488FF1201591258
:0501B60001F20201E06E
:10013100AC07AA057F0112017AE4FF120211AF0296
:100141007E00120218AF037E00120218AF187E0063
:08015100120218AF190201A609
:1001BB00AC07AA05E4FF12017AAF02120211AF03DA
:0301CB000201A688
:10001A0002009AE493A3F8E493A34003F68001F262
:10002A0008DFF48029E493A3F85407240CC8C333E7
:10003A00C4540F4420C8834004F456800146F6DFB6
:10004A00E4800B01020408102040809001CEE47E77
:10005A00019360BCA3FF543F30E509541FFEE493AB
:10006A00A360010ECF54C025E060A840B8E493A372
:10007A00FAE493A3F8E493A3C8C582C8CAC583CA9D
:10008A00F0A3C8C582C8CAC583CADFE9DEE780BE55
:0101DF00001F
:00000001FF
