:0300000002000EED
:0C000E00787FE4F6D8FD758121020055D2
:1001BB000A0B3F065B4F666D7D077F6F01090001E0
:0A01CB000A0001200FC1880108009E
:10013D0030B31C30B219D200D201C2B30000A2B24A
:10014D009202D2B3C2B20000A2B39203D2B222D2B3
:0C015D0002D203A2B39200A2B2920122CF
:10009A0012013DAF207E00EF640F6048300845052D
:1000AA0008D3E508940A748094804038E4F508E59A
:1000BA002024FD602A24FC602124FC6018146010AE
:1000CA0014600814701C750A018017750A028012E0
:1000DA00750A03800D750A048008750A0580037580
:1000EA000A06C208EF640F4E7007F508D208750AAF
:0100FA0009FC
:0100FB0022E2
:10020600538E7F5389F0758A66758CFCD2A9D2AF5E
:05021600C28DD28C2214
:1000FC007592FF7591FFE4F5B2F5B1120206E509B0
:10010C00640A70FA7B07FD7F401202307B077D0189
:10011C007F401202307B077D027F40120230740B4D
:10012C00250AF8E6FF7B077D03120230E4F509800F
:01013C00CDF5
:03000B000201D619
:1001D600C0E0C0D075D000C006C00712009A05095D
:0901E600D007D006D0D0D0E032E1
:05000300007F05DFFE97
:0100080022D5
:040291007F09DFFE04
:010295002246
:05028B00007F10DFFE02
:01029000224B
:0A028100D294D295120003C2952218
:10025500C29412028B2095FDD294120003C29422FF
:10024300C294120003C295120003D294120003D287
:020253009522F2
:02016900AE07DF
:10016B00E4FDEDC3940874809480501BC294EE3070
:10017B00E004D2958002C295120291EEC313FED217
:07018B00941202910D80DBCC
:01019200224A
:1001EF00AE07120281EE60047F4080027F4412014D
:0701FF0069120255020243E0
:0F026500AE07120281EE24C0FF1201690202559A
:07027400120265AF047E00D9
:06027B00120169020255A8
:10021B00AE07120243120281EE2488FF120169120B
:05022B00025502024330
:10019300AC07AA057F011201EFE4FF120274AF025C
:1001A3007E0012027BAF037E0012027BAF187E003B
:0801B30012027B7F0602021B11
:10023000AC07AA05E4FF1201EFAF02120274AF038C
:0302400002021B9C
:10001A000200FCE493A3F8E493A34003F68001F200
:10002A0008DFF48029E493A3F85407240CC8C333E7
:10003A00C4540F4420C8834004F456800146F6DFB6
:10004A00E4800B01020408102040809001BBE47E8A
:10005A00019360BCA3FF543F30E509541FFEE493AB
:10006A00A360010ECF54C025E060A840B8E493A372
:10007A00FAE493A3F8E493A3C8C582C8CAC583CA9D
:10008A00F0A3C8C582C8CAC583CADFE9DEE780BE55
:0101D5000029
:00000001FF
