:10037B000A083F065B4F666D7D077F6F0113000117
:02038B0012005E
:10036600438E805389F0E4F58A758C28C28DD28C31
:05037600D2A9D2AF2264
:10011400759230759130E4F5B1F5B2120366D29060
:10012400E512D3941440F9E4F512E512643C7032FC
:10013400F5127F0612027D8F22007F0512027D8F49
:1001440027007F0412027D8F24007F0212027D8F1C
:1001540025007F0112027D8F2600E4FF12027D8FAD
:100164002300E52375F0021202A2AFF0EF600575DB
:09017400138080B6E4F51380B19C
:03000B0002009A56
:10009A00C0E0C0F0C083C082C0D075D000C000C02C
:1000AA0001C002C003C004C005C006C0070512E5AE
:1000BA002575F00A1202A22408F8E6FFE52575F074
:1000CA000A1202A2AEF074082EF8E64513FDE526E0
:1000DA0075F00A1202A22408F8E6FBE52675F00A72
:1000EA001202A2AEF074082EF8E6F5171201C6D075
:1000FA0007D006D005D004D003D002D001D000D05A
:0A010A00D0D082D083D0F0D0E032D4
:0A03DD00D2B6D2B7C2B700C2B622F2
:07000300D2B6C2B7D2B7224A
:0F03C000EFC4540F75F00AA4FEEF540F2EFF2266
:10031F00EF75F06484E5F075F00A84C454F0FEEFD5
:09032F0075F00A84E5F04EFF228E
:05017D001203DD7FD03C
:020182008F1DCF
:10018400C2B6E4F51EAF1EE51DA807088002C333FE
:10019400D8FC30E704D2B78002C2B700D2B612034B
:1001A400FDC2B6051EE51EC3940840D9D2B700D2DD
:1001B400B61203FD30B704C2008002D200C2B602F8
:0201C40003FD39
:10022600E4F51DD2B7F51EC2B61203FDD2B612030F
:10023600FDE51D25E0F51D30B702051D1203FD0580
:0C0246001EE51EC3940840DFC2B6AF1DC9
:010252002289
:0E03CF00A20192B7D2B61203FDC2B60203FD20
:1001F7008F288D2912017D2000037F0022AF28124E
:1002070001822000037F0022AF2912018220000310
:0F0217007F00221200031203FD1203FD7F01225C
:1002E5001203DD7FD11201822000037F002212025A
:0D02F500268F1CD2011203CF120003AF1C94
:0103020022D8
:02027D008F1BD5
:10027F0012017D2000037F0022AF1B12018220009C
:10028F00037F00221202E5E51BB4020353073F125E
:02029F0003C09A
:0102A100223A
:0202C4008F1F8A
:1002C6007D207F0E1201F712017D2000037F0022A0
:0E02D600AF1F1201822000037F00221202E5FA
:0102E40022F7
:04030300AC07AF058F
:10030700E4FDECD394064005EC9400400A12031F69
:07031700AD07AF041201F76E
:01031E0022BC
:0A03E700D294D2951203F7C29522BA
:1003A000C2941203FD2095FDD2941203F7C2942249
:10038E00C2941203F7C2951203F7D2941203F7D256
:02039E009522A6
:020253008F1901
:10025500E4F51AC294E51930E004D2958002C295FE
:10026500120403E519C313F519D294120403051AF0
:07027500E51AC3940840DC08
:01027C00225F
:100338008F181203E7E51860047F4080027F44129B
:0803480002531203A002038E10
:1003B0008F181203E7E51824C0FF1202530203A0AE
:0603F1001202530203A0FA
:100350008F1812038E1203E7E5182488FF12025348
:060360001203A002038E4F
:1001C6008F148D158B167F01120338E4FF1203B0CE
:1001D600AF147E001203F1AF157E001203F1AF16C5
:1001E6007E001203F1AF177E001203F17F070203B0
:0101F60050B8
:0503F700007F05DFFEA0
:0103FC0022DE
:040403007F09DFFE90
:0104070022D2
:0503FD00007F10DFFE8F
:0104020022D7
:0300000002000EED
:0C000E00787FE4F6D8FD758129020055CA
:1002A200C2D530F707B2D563F0FF05F030E70CB2E4
:1002B200D5F4048463F0FF05F080018430D502F4A4
:0202C200042214
:10001A00020114E493A3F8E493A34003F68001F2E7
:10002A0008DFF48029E493A3F85407240CC8C333E7
:10003A00C4540F4420C8834004F456800146F6DFB6
:10004A00E4800B010204081020408090037BE47EC8
:10005A00019360BCA3FF543F30E509541FFEE493AB
:10006A00A360010ECF54C025E060A840B8E493A372
:10007A00FAE493A3F8E493A3C8C582C8CAC583CA9D
:10008A00F0A3C8C582C8CAC583CADFE9DEE780BE55
:01038D00006F
:00000001FF
