:0F035100020D0064010800020900C8020B000041
:1002D500E4F594F593F592F591F596F595F5B2F566
:1002E500B1F5B4F5B3F5CAF5C975BA8090FECCF091
:1002F50090FEC87460F090FECC7405F090FED57445
:1003050027F0A37410F090FED274EAF0A37460F0A5
:1003150090FEB17403F090FEDD7480F090FEC07421
:1003250001F0120262AF0EAE0D12033B90FED5EE48
:06033500F0A3EFF080ECE4
:10033B00AD07AC06E412010E7B017A0079707842AE
:06034B001200030201474D
:10026200C3E50E94BCE50D94024008750901750AB8
:10027200908006750900750AC8E5087023C3E50C6D
:10028200950AE50B95094018E4F50BF50C050EE50A
:100292000E7002050D94C0E50D940340037508012C
:1002A200E5086026C3E50C950AE50B9509401BE4B9
:1002B200F50BF50CE50E150E7002150DD3E50E9437
:1002C20090E50D94015003E4F508050CE50C70026D
:0202D200050B1A
:0102D4002207
:10000300EC4D6011E8497017ED33EC3304600DE4F7
:10001300FCFFFEFD22E933E8330470F80201B3125A
:10002300017E58046009E4CC24815006285009025B
:1000330001BD2840030201BAC0E0EB4A7044B98015
:1000430006D0E0FB0201A9EF4E701CBD8008EBFF58
:10005300EAFEE9FD80EBE98DF0A4FEE5F00200EC99
:10006300E9CDF9EAFEEBFFEF89F0A4FCE5F0CE89D8
:10007300F0A42EFFE435F0CD89F0A42DFEE435F095
:100083008067EF4E7005BD80D780C3EF8BF0A4ACC3
:10009300F0EE8BF0A42CFCE435F0F8EF8AF0A42CFE
:1000A300E5F038FCE433CB8DF0A42CFCE5F03BF811
:1000B300EE8AF0A42CFCE5F038F8E433CF89F0A401
:1000C3002CFCE5F038CF3400CE89F0A42FFFE5F007
:1000D3003EFEE433C98DF0A42EFEE5F039CD8AF05F
:1000E300A42FFFE5F03EFEE43DFD33D0E0FB5007D7
:1000F3000BBB000F0201BDEC2CFCEF33FFEE33FE14
:06010300ED33FD02019541
:1001090075F020800E75F010800575F0087D007E71
:10011900007F003392D530D5031201C8EC3340106B
:10012900EF33FFEE33FEED33FDEC33FCD5F0ED227A
:0E013900E5F0247EA2D513CC92E7CDCEFF22B6
:10014700EDD2E7CD33EC3392D524814006E4FFFEB0
:10015700FDFC22FCE4CFCECDCC24E0501174FF800F
:10016700EDC3CC13CCCD13CDCE13CECF13CF0470AC
:07017700F030D5DE0201C8E3
:10017E00E9D2E7C933E833F892D5EDD2E7CD33ECC7
:07018E0033FC5002B2D52240
:10019500EC30E7100FBF000C0EBE00080DBD0004CB
:1001A5000BEB6014A2D5EB13FCED92E7FD2274FF77
:1001B500FCFDFEFF22E480F8A2D574FF13FC7D80D0
:0301C500E480EFE4
:030000000201D624
:0C01D600787FE4F6D8FD75810E02021D52
:0E01C800C3E49FFFE49EFEE49DFDE49CFC2248
:1001E2000202D5E493A3F8E493A34003F68001F25C
:1001F20008DFF48029E493A3F85407240CC8C3331E
:10020200C4540F4420C8834004F456800146F6DFEC
:10021200E4800B0102040810204080900351E47E28
:10022200019360BCA3FF543F30E509541FFEE493E1
:10023200A360010ECF54C025E060A840B8E493A3A8
:10024200FAE493A3F8E493A3C8C582C8CAC583CAD3
:10025200F0A3C8C582C8CAC583CADFE9DEE780BE8B
:01036000009C
:00000001FF
