:1006C7000A093F065B4F666D7D077F6F01140001C6
:0906D7001300010803C107C1086A
:10087300438E805389F0E4F58A758C28C28DD28C1F
:05088300D2A9D2AF2252
:10000E00759230759130E4F5B1F5B2120873D3E5FF
:10001E001394147480948040F5E4F513120695122F
:10002E00048712059FE513644660030200BBF513B7
:10003E007F061207888F2D007F051207888F3200EA
:10004E007F041207888F2F007F021207888F3000DF
:10005E007F011207888F3100E4FF1207888F2E0070
:10006E007F031207888F2C00200723AF307E00C33A
:10007E00EF940674809480400EEF941774809480F1
:10008E0050057508058003750801D2078012E53109
:10009E00700EAF30EF64066005EF64177002C20792
:1000AE00E52E30E0057514808003E4F51420080376
:1000BE0002002AE51C600302014A3006051203E61F
:1000CE00807A20053BE53075F00A842409F8E6FFB6
:1000DE00E53075F00A84740925F0F8E64514FDE55F
:1000EE003175F00A842409F8E64514FBE53175F004
:1000FE000A84740925F0F8E6F5278508281206F813
:10010E00300539E53275F00A842409F8E6FFE53248
:10011E0075F00A84740925F0F8E64480FDE52F7524
:10012E00F00A842409F8E6FBE52F75F00A847409B9
:10013E0025F0F8E6F5278508281206F8E51C640177
:10014E00600302002AE51E6012E4F51E8530198553
:10015E00311A852E1785321B852F18E51D64017007
:10016E0023E51975F00A842409F8E6FFE51975F000
:10017E000A84740925F0F8E6FD7527088508287BA2
:10018E00081206F8E51D64027023E51A75F00A845C
:10019E002409F8E6FBE51A75F00A84740925F0F8CF
:1001AE00E6F5278508287D087F081206F8E51D6408
:1001BE00037023E51B75F00A842409F8E6FFE51B9E
:1001CE0075F00A84740925F0F8E6FD752708850890
:1001DE00287B081206F8E51D6404600302002AE578
:1001EE001875F00A842409F8E6FBE51875F00A8400
:1001FE00740925F0F8E6F5278508287D087F081292
:05020E0006F802002AC1
:03000B00020919CE
:050919000513B20832D5
:1003E6007F111207D18F237F121207D18F22E522A8
:1003F600C413135403FCE4120323E4FBFA79C8780C
:10040600411202131203578F22E52320E75E75F08F
:100416000A84FFD3940074809480400C74092FF8EA
:10042600E6FFAB08E4FD8005AB08E4FDFF1208100B
:10043600E52375F00A84740925F0F8E64480FFABDD
:10044600087D01120810E52275F00A842409F8E6F1
:10045600FFAB087D02120810E52275F00A847409C4
:1004660025F0F8E6FFAB087D03020810E52330E728
:100476000F7527088508287B087D087F081206F86F
:010486002253
:0A08E300D290D291C29100C290227F
:07090000D290C291D29122B6
:0F08BA00EFC4540F75F00AA4FEEF540F2EFF2267
:10082C00EF75F06484E5F075F00A84C454F0FEEFC3
:09083C0075F00A84E5F04EFF227C
:050613001208E37FD096
:020618008F272A
:10061A00C290E4F528C3E528940874809480502297
:10062A00AF28A807E527088002C333D8FC30E704BF
:10063A00D2918002C29100D290120913C290052869
:10064A0080D3D29100D290120913309104C209804A
:08065A0002D209C2900209134B
:10066200E4F526D291F527C3E52794087480948097
:10067200501CC290120913D290120913E52625E0EC
:10068200F5263091020526120913052780D9C2905A
:02069200AF2691
:010694002243
:0E08C900A20A9291D290120913C29002091352
:100759008F258D261206132009037F0022AF25124B
:1007690006182009037F0022AF2612061820090364
:0F0779007F00221209001209131209137F0122B7
:1007F2001208E37FD11206182009037F0022120695
:0D080200628F25D20A1208C9120900AF2525
:01080F0022C6
:020788008F22BE
:10078A001206132009037F0022AF2212061820093D
:10079A00037F00221207F2E5226402700353073F27
:0307AA001208BA78
:0107AD002229
:0207D1008F2473
:1007D3007D207F0E1207591206132009037F002282
:0E07E300AF241206182009037F00221207F22D
:0107F10022E5
:0407AE00AC07AF05E0
:1007B200E4FDEC7A00D39406748094804006748041
:0E07C2009480400A12082CAD07AF04120759AC
:0107D0002206
:0A08ED00D295D29412090DC2942294
:10089A00C2951209132094FDD29512090DC2952210
:10088800C29512090DC29412090DD29512090DD202
:020898009422A8
:020729008F2A15
:10072B00E4F52BC3E52B940874809480501FC2957D
:10073B00E52A30E004D2948002C29412091EE52A05
:0D074B00C313F52AD29512091E052B80D686
:01075800227E
:100845008F291208EDE52960047F4080027F44125C
:08085500072912089A02088825
:1008AA008F291208EDE52924C0FF12072902089AA8
:0609070012072902089A04
:10085D008F291208881208EDE5292488FF1207292F
:06086D0012089A0208883F
:1006F8008F248D258B267F01120845E4FF1208AA56
:10070800AF247E00120907AF257E00120907AF2625
:100718007E00120907AF277E00120907AF280208DA
:010728005D73
:100810008F248D258B26E4FF120845AF251208AAE8
:0C082000AF247E00120907AF2602085D1D
:05090D00007F05DFFE84
:0109120022C2
:04091E007F09DFFE70
:0109220022B2
:05091300007F10DFFE73
:0109180022BC
:070003000000007F34DFFE66
:01000A0022D3
:0B08D7000000007F0B7EBEDEFEDFFC99
:0108E20022F3
:0808F7007F6C7E91DEFEDFFC48
:0108FF0022D6
:1006E000011C00011D00011E01C105C106C104C19C
:0706F00001C102C103C100BA
:1006950020B42E1208F720B422751C01051DC3E5F0
:1006A5001D9405748094804012E4F51DF51C751E9B
:1006B50001C204C201C202C203C2001208F730B46B
:0206C500FD2214
:1004870030B5030205121208F720B579AF1C7E00BC
:10049700EF7002B205EF64014E706AAF1DFEEF64A4
:1004A7000170140519C3E5199418748094804003EA
:1004B700E4F519D204D201EF64024E7014051AC391
:1004C700E51A943C748094804003E4F51AD204D270
:1004D70002E51D64037014051BC3E51B940D7480AE
:1004E70094804003751B01D204D203E51D64047098
:1004F700140518C3E5189420748094804003751878
:0C05070001D204D2001208F730B5FD222A
:10059F0020B6701208F720B664AF1C7E00EF700211
:1005AF00B206EF64014E7055200409F51CF51D7558
:1005BF001E018049300446EF64014E704030010B3C
:1005CF00AD197F021207AEC204C201300213AD1A79
:1005DF007F011207AE007D1EE4FF1207AEC204C2F8
:1005EF000230030BAD1B7F051207AEC204C20330EE
:1005FF00000BAD187F041207AEC204C2001208F739
:04060F0030B6FD22E2
:10021300EC4D6011E8497017ED33EC3304600DE4E5
:10022300FCFFFEFD22E933E8330470F80203C31236
:10023300038E58046009E4CC248150062850090237
:1002430003CD2840030203CAC0E0EB4A7044B980DF
:1002530006D0E0FB0203B9EF4E701CBD8008EBFF34
:10026300EAFEE9FD80EBE98DF0A4FEE5F00202FC75
:10027300E9CDF9EAFEEBFFEF89F0A4FCE5F0CE89C6
:10028300F0A42EFFE435F0CD89F0A42DFEE435F083
:100293008067EF4E7005BD80D780C3EF8BF0A4ACB1
:1002A300F0EE8BF0A42CFCE435F0F8EF8AF0A42CEC
:1002B300E5F038FCE433CB8DF0A42CFCE5F03BF8FF
:1002C300EE8AF0A42CFCE5F038F8E433CF89F0A4EF
:1002D3002CFCE5F038CF3400CE89F0A42FFFE5F0F5
:1002E3003EFEE433C98DF0A42EFEE5F039CD8AF04D
:1002F300A42FFFE5F03EFEE43DFD33D0E0FB5007C5
:100303000BBB000F0203CDEC2CFCEF33FFEE33FEEF
:06031300ED33FD0203A51D
:1003190075F020800E75F010800575F0087D007E5F
:10032900007F003392D530D5031203D8EC33401047
:10033900EF33FFEE33FEED33FDEC33FCD5F0ED2268
:0E034900E5F0247EA2D513CC92E7CDCEFF22A4
:10035700EDD2E7CD33EC3392D524814006E4FFFE9E
:10036700FDFC22FCE4CFCECDCC24E0501174FF80FD
:10037700EDC3CC13CCCD13CDCE13CECF13CF04709A
:07038700F030D5DE0203D8BF
:10038E00E9D2E7C933E833F892D5EDD2E7CD33ECB5
:07039E0033FC5002B2D5222E
:1003A500EC30E7100FBF000C0EBE00080DBD0004B9
:1003B5000BEB6014A2D5EB13FCED92E7FD2274FF65
:1003C500FCFDFEFF22E480F8A2D574FF13FC7D80BE
:0303D500E480EFD2
:03000000020513E3
:0C051300787FE4F6D8FD75813202055AAD
:0E03D800C3E49FFFE49EFEE49DFDE49CFC2236
:10051F0002000EE493A3F8E493A34003F68001F2E4
:10052F0008DFF48029E493A3F85407240CC8C333DD
:10053F00C4540F4420C8834004F456800146F6DFAC
:10054F00E4800B01020408102040809006C7E47E6F
:10055F00019360BCA3FF543F30E509541FFEE493A1
:10056F00A360010ECF54C025E060A840B8E493A368
:10057F00FAE493A3F8E493A3C8C582C8CAC583CA93
:10058F00F0A3C8C582C8CAC583CADFE9DEE780BE4B
:0106F7000002
:00000001FF
